:10000000A7C4C1C4C0C4BFC4BEC4BDC4BCC4BBC4F7
:10001000BAC4B9C4FFC4B7C4B6C4B5C4B4C40040FC
:100020007A10F35A00A0724E18090010A5D4E80007
:1000300000E87648170000E40B54020000CA9A3B1F
:10004000000000E1F50500008096980000004042A5
:100050000F000000A0860100000010270000000033
:10006000E803000000006400000000000A00000037
:1000700000000100000000002C76D888DC674F08E3
:1000800023DFC1DFAE59E1B1B796E5E3E453C63AE9
:10009000E651997696E8E6C28426EB898C9B62ED60
:1000A000407C6FFCEFBC9C9F40F2BAA56FA5F4901A
:1000B000055A2AF75C936B6CF9676DC11BFCE0E491
:1000C0000D47FEF520E6B500D0ED902E03009435E7
:1000D00077050080841E080000204E0A000000C83A
:1000E0000C333333330F986E12831141EF8D21148B
:1000F000893BE65516CFFEE6DB18D1844B381BF75B
:100100007C1D901DA4BBE424203284725E228100F9
:10011000C9F124ECA1E53D2700000000000000002B
:100120000000000000000000000000F800000000D7
:10013000000000333000000000100C06100C060018
:10014000000000000000000040C07840C07840007F
:10015000043F04043F040400007088FC08300000E1
:10016000001820FF211E0000F008F000E018000039
:1001700000211C031E211E0000F0088870000000F2
:100180001E2123241927211010160E000000000044
:100190000000000000000000000000E01804020061
:1001A000000000071820400000020418E0000000D2
:1001B0000040201807000000404080F080404000D0
:1001C0000202010F01020200000000F00000000026
:1001D0000101011F010101000000000000000000FA
:1001E00080B070000000000000000000000000006F
:1001F00000010101010101010000000000000000F8
:100200000030300000000000000000008060180492
:10021000006018060100000000E010080810E0006F
:10022000000F102020100F00001010F80000000038
:100230000020203F2020000000700808088870007F
:1002400000302824222130000030088888483000FF
:100250000018202020110E000000C02010F800001F
:1002600000070424243F240000F8088888080800B8
:100270000019212020110E0000E0108888180000CD
:10028000000F112020110E0000380808C83808009F
:100290000000003F0000000000708808088870001F
:1002A000001C222121221C0000E010080810E000A0
:1002B0000000312222110F00000000C0C000000029
:1002C000000000303000000000000080000000004E
:1002D0000000806000000000000080402010080046
:1002E000000102040810200040404040404040000F
:1002F00004040404040404000008102040800000EA
:100300000020100804020100007048080808F000EE
:100310000000003036010000C030C828E810E000BE
:100320000718272423140B000000C038E000000049
:10033000203C23020227382008F8888888700000B3
:10034000203F202020110E00C03008080808380087
:10035000071820202010080008F808080810E000FE
:10036000203F202020100F0008F88888E80810009F
:10037000203F20202320180008F88888E808100073
:10038000203F200003000000C030080808380000AB
:1003900007182020221E020008F808000008F808AC
:1003A000203F210101213F20000808F80808000033
:1003B0000020203F2020000000000808F808080066
:1003C000C08080807F00000008F888C028180800DE
:1003D000203F20012638200008F808000000000017
:1003E000203F20202020300008F8F800F8F808000E
:1003F000203F003F003F200008F830C00008F80808
:10040000203F200007183F00E01008080810E00017
:100410000F10202020100F0008F808080808F0002E
:10042000203F210101010000E01008080810E00051
:100430000F18242438504F0008F8888888887000E6
:10044000203F2000030C3020007088080808380086
:100450000038202121221C00180808F8080818007C
:100460000000203F2000000008F808000008F808FD
:10047000001F202020201F000878880000C83808AE
:10048000000007380E010000F80800F80008F80026
:10049000033C0700073C03000818688080681808C0
:1004A00020302C03032C30200838C800C83808003E
:1004B0000000203F2000000010080808C83808008D
:1004C0002038262120201800000000FE0202020031
:1004D0000000007F40404000000C30C000000000E1
:1004E000000000010638C00000020202FE00000009
:1004F000004040407F0000000000040202020400AF
:1005000000000000000000000000000000000000EB
:1005100080808080808080800002020400000000D3
:1005200000000000000000000000808080800000CB
:100530000019242222223F2008F8008080000000B9
:10054000003F112020110E0000000080808000007C
:10055000000E112020201100000000808088F8008B
:10056000000E112020103F200000808080800000BD
:10057000001F222222221300008080F08888881821
:100580000020203F2020000000008080808080002C
:10059000006B94949493600008F8008080800000C1
:1005A000203F210000203F2000809898000000009C
:1005B0000020203F202000000000008098980000CC
:1005C00000C08080807F000008F8000080808000EC
:1005D000203F24022D302000000808F80000000011
:1005E0000020203F202000008080808080808000CC
:1005F000203F20003F20003F80800080808000005E
:10060000203F210000203F200000808080800000EB
:10061000001F202020201F0080800080800000001C
:1006200080FFA12020110E0000000080808080004B
:10063000000E112020A0FF8080808000808080003C
:1006400020203F2120000100000080808080800069
:100650000033242424241900008080E080800000DE
:100660000000001F2020000080800000008080002B
:10067000001F202020103F2080808000008080808C
:1006800000010E300806010080800080008080801C
:100690000F300C030C300F00008080008080800041
:1006A0000020312E0E31200080808000008080806C
:1006B00080818E701806010000808080808080001C
:1006C0000021302C2221300000000000807C02023A
:1006D00000000000003F404000000000FF0000005C
:1006E00000000000FF0000000002027C800000000B
:1006F0000040403F00000000000601010202040427
:1007000000000000000000000000000000000000E9
:10071000002F000000000700070000147F147F1462
:1007200000242A7F2A1200626408132300364955E8
:10073000225000000503000000001C2241000000C0
:1007400041221C000014083E08140008083E080856
:10075000000000A0600000080808080800006060B1
:100760000000002010080402003E5149453E0000F0
:10077000427F4000004261514946002141454B31D2
:10078000001814127F10002745454539003C4A499E
:100790004930000171090503003649494936000610
:1007A0004949291E00003636000000005636000078
:1007B00000081422410000141414141400004122F3
:1007C000140800020151090600324959513E007CCB
:1007D0001211127C007F49494936003E41414122B5
:1007E000007F4141221C007F49494941007F09099E
:1007F0000901003E4149497A007F0808087F00004E
:10080000417F4100002040413F01007F0814224108
:10081000007F40404040007F020C027F007F0408C0
:10082000107F003E4141413E007F09090906003E1C
:100830004151215E007F0919294600464949493145
:100840000001017F0101003F4040403F001F204068
:10085000201F003F4038403F006314081463000726
:100860000870080700615149454300007F4141007D
:1008700000552A552A55000041417F00000402011D
:1008800002040040404040400000010204000020FB
:1008900054545478007F4844443800384444442039
:1008A00000384444487F00385454541800087E09E6
:1008B00001020018A4A4A47C007F080404780000AE
:1008C000447D4000004080847D00007F102844006B
:1008D0000000417F4000007C04180478007C08047C
:1008E000047800384444443800FC242424180018B8
:1008F000242418FC007C08040408004854545420A4
:1009000000043F444020003C4040207C001C20402C
:10091000201C003C4030403C004428102844001C6F
:10092000A0A0A07C004464544C4414141414141467
:10093000AED5F0A81FD300408D142000A1C8DA0264
:10094000813FD922DB20A4A62EAF22003F21007FC9
:1009500011241FBECFE5D2E0DEBFCDBF10E0A0E680
:10096000B0E0EAE3F8E102C005900D92A638B107C5
:10097000D9F720E0A6E8B0E001C01D92A339B20784
:10098000E1F7EED158C73CCB81E087BB88BB9AD05A
:1009900060E288E097E0DBD020E040E060E080E0CB
:1009A000B5D083E887B986E886B9B89A88B388BB9A
:1009B000089582E08ABD83B7856083BF8AE789BDD9
:1009C00089B7806189BF0895880F862B87B982E433
:1009D0008A95F1F700C0369A3699FECF84B195B169
:1009E00008958CE087B986EA8A95F1F700C0369AB7
:1009F0003699FECF64B185B1782F90E080E05AD36C
:100A00009B01AC0160E07FED83E899E4BAD221D389
:100A1000CB0108951F921FB61F9211248F939F93AD
:100A2000809188009091890001969093890080932D
:100A3000880080918800909189008631910554F05A
:100A400081E090E090938700809386001092890067
:100A5000109288009F918F911F901FBE1F90189534
:100A6000B89ABA9AC29AC09AC098C2980895C29881
:100A7000C098C29AC09AB898089530E020E090E0FB
:100A8000AC01022E01C0440F0A94EAF747FF0CC0E4
:100A9000C09AC29AC2982F5F3F4F2830310581F724
:100AA000C09AC29AC2980895C098F3CFD9DF88E758
:100AB000E4DF80E0E2CFD4DF88E7DFDF80E4DDCF72
:100AC000DCCFD5CFCF93DF93F1DFC0E3D9E0FE01D8
:100AD0008491D3DF2196F9E0C035DF07C1F7DF91BC
:100AE000CF91C5CFCF93DF93C82FD62FDFDF8D2FC8
:100AF0008770806BC2DF8C2F8F70BFDF8C2F829549
:100B00008F708061BADFDF91CF91B1CFEF92FF920A
:100B10000F931F93CF93DF93E82EF62E042F122FFF
:100B200060E080E0DFDFC7DFC0E0D1E08E2DA5DF31
:100B30008F2DA3DF802FA1DF812F9FDF2197B1F7BA
:100B4000DF91CF911F910F91FF90EF9090CF9093F5
:100B50009200809391006093900008950F931F93EB
:100B6000CF93DF9390E0EC01CC0FDD1FCC0FDD1FA6
:100B7000880F991FC80FD91F8E01005C11099BDFD8
:100B8000CA5BD109E0919100F0919200E00FF11F52
:100B9000849196DF0F5F1F4F0C171D0799F7DF91A8
:100BA000CF911F910F918DCFCF93DF93EC0189915E
:100BB000811103C0DF91CF910895D0DFF8CF10925B
:100BC0008F006AE870E060D090E086579F4FECCFCE
:100BD00010928F006AE870E057D08AE890E0E4CF86
:100BE0008F929F92BF92CF92DF92EF92FF920F93DC
:100BF0001F93CF93DF937C01D62EC42E8901F80179
:100C0000C1918F01C1110CC0DF91CF911F910F9144
:100C1000FF90EF90DF90CF90BF909F908F900895BE
:100C2000C052DD0B24E0CC0FDD1F2A95E1F788E7E9
:100C30008D1510F4C394D12C6C2D8D2D53DF3BDF1B
:100C400047018C0E9D1E98E0B92EF401849138DF87
:100C5000BA94FFEF8F1A9F0AB110F7CF32DF61E02D
:100C60006C0D8D2D3FDF27DF2896CE0DDF1D88E030
:100C7000B82EFE01849124DFBA942196B110F9CFE9
:100C800020DFF8E0DF0EBBCFCF93DF93CDB7DEB729
:100C90002A970FB6F894DEBF0FBECDBFAC018AE035
:100CA000E0E6F0E0DE01119601900D928A95E1F701
:100CB000FE013196DB0120E084E06191719190E0CA
:100CC00003C09F5F461B570B46175707D0F784306A
:100CD00029F4911111C0243079F090EF905D9D932B
:100CE0002F5F253051F72A960FB6F894DEBF0FBE5E
:100CF000CDBFDF91CF910895822FF0CFAC0123E0DB
:100D000030E0942F9F70FB01E20FF31F9A3060F4E4
:100D1000905D908384E0569547958A95E1F7215040
:100D2000310978F784E00895995CF3CFFC0120E065
:100D30008FE040E050E890E0E417F50728F0E41B6E
:100D4000F50B8F3059F091E0905DDB019D93BD0173
:100D5000569547952F5F203171F70895822FF3CF75
:100D6000CDB7DEB7A0970FB6F894DEBF0FBECDBFEC
:100D70000BDE1FDE78942AE630E040E060E088E198
:100D800091E02EDF29E730E042E060E088E191E089
:100D900027DF93E0E92EF12C809186009091870067
:100DA0000197D1F71EDE8C011CDE080F191F19DE1A
:100DB000800F911FB70159D08B014AE050E0BE016E
:100DC0006F5E7F4FC8018CD29E012F5E3F4F42E085
:100DD00064E288E191E004DF85E0C82ED12C812C0B
:100DE000912C540161E081E0EFDDBC01990F880B8B
:100DF000990B62D19B01AC01C501B4015ED04B01DE
:100E00005C0181E0C81AD10869F7B801110F880B9D
:100E1000990B52D12B013C0120E030E040EA50E434
:100E2000C501B401AED09B01AC01C301B201D0D168
:100E300020E030E040E256E4A4D023E333E948E880
:100E400053E43AD08E010F5F1F4F21E030E045E0C0
:100E500050E029D29C0140E064E288E191E0C0DEEC
:100E6000109287001092860097CF97FB072E16F4FA
:100E7000009406D077FD08D00BD007FC05D03EF4D7
:100E8000909581959F4F0895709561957F4F089536
:100E9000AA1BBB1B51E107C0AA1FBB1FA617B707A0
:100EA00010F0A61BB70B881F991F5A95A9F78095BC
:100EB0009095BC01CD0108955058BB27AA270ED0AC
:100EC0004DC13ED130F043D120F031F49F3F11F4B9
:100ED0001EF433C10EF4E095E7FB29C1E92F4FD191
:100EE00080F3BA17620773078407950718F071F447
:100EF0009EF567C10EF4E0950B2EBA2FA02D0B01C5
:100F0000B90190010C01CA01A0011124FF27591B4E
:100F100099F0593F50F4503E68F11A16F040A22F54
:100F2000232F342F4427585FF3CF469537952795C5
:100F3000A795F0405395C9F77EF41F16BA0B620BC4
:100F4000730B840BBAF09150A1F0FF0FBB1F661F0B
:100F5000771F881FC2F70EC0BA0F621F731F841F4E
:100F600048F4879577956795B795F7959E3F08F074
:100F7000B3CF9395880F08F09927EE0F9795879533
:100F800008950CD0EBC0E3D040F0DAD030F021F47B
:100F90005F3F19F0CCC0511115C1CFC0F0D098F30C
:100FA0009923C9F35523B1F3951B550BBB27AA27EA
:100FB00062177307840738F09F5F5F4F220F331F5C
:100FC000441FAA1FA9F333D00E2E3AF0E0E830D028
:100FD00091505040E695001CCAF729D0FE2F27D02B
:100FE000660F771F881FBB1F261737074807AB07F9
:100FF000B0E809F0BB0B802DBF01FF2793585F4F6E
:101000002AF09E3F510568F092C0DCC05F3FECF3D0
:10101000983EDCF3869577956795B795F7959F5F32
:10102000C9F7880F911D9695879597F90895E1E086
:10103000660F771F881FBB1F621773078407BA07E5
:1010400020F0621B730B840BBA0BEE1F88F7E09540
:10105000089504D06894B111B5C0089598D088F06F
:101060009F5790F0B92F9927B751A0F0D1F0660F94
:10107000771F881F991F1AF0BA95C9F712C0B130AF
:1010800081F09FD0B1E008959CC0672F782F88270A
:10109000B85F39F0B93FCCF3869577956795B395EE
:1010A000D9F73EF490958095709561957F4F8F4F5D
:1010B0009F4F0895E89409C097FB3EF49095809562
:1010C000709561957F4F8F4F9F4F9923A9F0F92F0E
:1010D00096E9BB279395F695879577956795B7958C
:1010E000F111F8CFFAF4BB0F11F460FF1BC06F5F72
:1010F0007F4F8F4F9F4F16C0882311F096E911C084
:10110000772321F09EE8872F762F05C0662371F0A4
:1011100096E8862F70E060E02AF09A95660F771FB8
:10112000881FDAF7880F9695879597F9089597F9AC
:101130009F6780E870E060E008959FEF80EC08957D
:1011400000240A94161617061806090608950024A6
:101150000A9412161306140605060895092E039420
:10116000000C11F4882352F0BB0F40F4BF2B11F494
:1011700060FF04C06F5F7F4F8F4F9F4F089557FDF3
:101180009058440F551F59F05F3F71F04795880FF5
:1011900097FB991F61F09F3F79F08795089512168C
:1011A00013061406551FF2CF4695F1DF08C0161638
:1011B00017061806991FF1CF8695710561050894E9
:1011C0000895E894BB2766277727CB0197F9089500
:1011D0000AD0C4CFB5DF28F0BADF18F0952309F0A4
:1011E000A6CFABCFEFCFCBDFA8F39923D9F355230D
:1011F000C9F3950F50E0551FAA27EE27FF27BB27FD
:1012000000240894679520F4E20FF31FB41F0A1E10
:10121000220F331F441FAA1F6695A9F7779530F454
:10122000F30FB41F0A1E121E08F46395330F441FF8
:10123000AA1F221F769599F7879520F4B40F0A1EEE
:10124000121E631F440FAA1F221F331F8695A9F782
:10125000862F712D602D11249F5750408AF0E1F0A8
:1012600088234AF0EE0FFF1FBB1F661F771F881FE2
:1012700091505040A9F79E3F510570F058CFA2CF32
:101280005F3FECF3983EDCF3869577956795B795CD
:10129000F795E7959F5FC1F7FE2B880F911D9695F7
:1012A000879597F90895EF920F931F93CF93DF934C
:1012B000E80134E047FD34E1042E000C550B57FFE4
:1012C00003C0519541955109E32E022F242FAE0101
:1012D00034D0CE01DF91CF911F910F91EF900895FF
:1012E0004532510518F4423008F004C0FB01108269
:1012F000CB010895BB274A3031F4992322F4BDE293
:10130000909581959F4F01C0BB27FB015527AA27C8
:10131000880F991FAA1FA41710F0A41B8395505182
:10132000B9F7A05DAA3308F0A95DA193009779F7FA
:10133000B111B1931192CB0137C2A9E0B0E0E2EA5A
:10134000F9E048C26A01F22EB02E102F0BE30B1504
:1013500008F41BE31F5F012F27E0AE014F5F5F4FD3
:101360004BD1BC018981982F99709130C1F19BE2DA
:10137000E1FC04C09E2D9170E0FC90E25E2D507166
:10138000E82FE87083FF47C083E0911184E0EF2DE0
:10139000E81B8F1508F0E0E0552369F1992319F057
:1013A000D6019D936D01C6010396E2FE28C02EE48E
:1013B000D6012C9331E411963C93119712962C93FD
:1013C0002E2F382F492F50E221111EC0E80FF92F80
:1013D000F11D10828EEF9FEF2996ECE017C29DE27F
:1013E000CDCFD9014D9381509D018111FACFCE0E01
:1013F000D11CE0E0D3CF8E2F960140E2F6CF2EE64F
:10140000D6012C9331E6D7CFA32FB42F5D93215073
:101410003A2F4B2FD9CF482F447082FF41C083E031
:10142000911184E08F1510F4EF2DE81B552359F12D
:10143000992319F0D6019D936D01C6010396E2FE32
:1014400026C029E4D6012C932EE411962C931197F3
:1014500026E412962C932E2F382F492F50E2222368
:1014600009F4B4CFA32FB42F5D9321503A2F4B2F03
:10147000F6CFD9014D9381509D018111FACFCE0E47
:10148000D11CE0E0D5CF8E2F960140E2F6CF29E6C1
:10149000D6012C932EE611962C93119726E6D9CFE0
:1014A0009B0177FF02C030E020E0A1E0B0E09111A5
:1014B00002C0B0E0A0E0F9013196AE0FBF1F8B2C47
:1014C000912CBB20F1F05401EFEFAE1ABE0AAA0D29
:1014D000BB1DFA161B0619F014F04F2D4A1B5111B3
:1014E00045C0E3FC08C07601A42FB0E2A1110CC0F6
:1014F000C40ED11C40E091113BC0D601942F50E3A3
:101500000AC0B12CA12CE3CFF701B1937F01A15008
:10151000EDCF5D9391509111FCCFC40ED11C40E0F2
:101520002DC001E03AC050E354C06217730739F48C
:10153000A63320F4A53319F4B11101C051E3D6014B
:101540005C93242F382F592F60E2211108C0480FD7
:10155000592F511DFA01108290E080E03DCFE32F1A
:10156000F52F619321503E2F5F2FEFCF992331F05C
:10157000D6019D936D01552309F4BFCF012F060FAE
:10158000AA81B82FB07184FF03C0A13309F40150C0
:1015900010163CF6093008F008E0FB01E01BF109E9
:1015A0008F01EE24FF24E818F9088EE2B82E6217A6
:1015B00073070CF4B8CF021713070CF0B4CFFB017C
:1015C000E21BF30B81E090E08C0F9D1FE80FF91FE9
:1015D000518121503109C60101962E153F050CF4A9
:1015E000A4CFF60150832F3F320721F4C6010296A3
:1015F000F601B1826C01DBCF283008F027E03327F9
:10160000DA01990F311D87FD916000966105710522
:1016100039F432602E5F3D9330E32A95E1F7089567
:101620009F3F30F080387105610509F03C5F3C5FF9
:101630003D93913008F08068911DDF93CF931F9305
:101640000F93FF92EF92192F987F9695E92F969519
:101650009695E90FFF27E858FF4F99273327EE2487
:10166000FF24A701E70105900894079428F4360F9A
:10167000E71EF81E491F511D660F771F881F991F0F
:101680000694A1F70590079428F4E70EF81E491F69
:10169000561FC11D770F881F991F661F0694A1F75B
:1016A0000590079428F4F80E491F561FC71FD11D37
:1016B000880F991F661F771F0694A1F7059007945E
:1016C00020F4490F561FC71FD81F990F661F771F99
:1016D000881F0694A9F784911095177041F0D6954C
:1016E000C79557954795F794E7941A95C1F7EEE19A
:1016F000F0E068941590159135916591959105905C
:101700007FE27395E118F10A430B560BC90BD00920
:10171000C0F7E10CF11E431F561FC91FD01D7EF4F8
:10172000703311F48A95E6CFE894015030F0080F39
:101730000AF40027021708F4202F2395022F7A338A
:1017400028F079E37D932A95E9F710C07D932A95D7
:1017500089F6069497956795379517951794E1182C
:10176000F10A430B560BC90BD00998F023957E91D3
:1017700073957A3308F070E37C932013B8F77E9169
:1017800070617D9330F0839571E37D9370E32A95CA
:10179000E1F71124EF90FF900F911F91CF91DF910E
:1017A000992787FD90950895DC01FC01672F7191C1
:1017B0007723E1F7329704C07C916D937083629137
:1017C000AE17BF07C8F308952F923F924F925F92D2
:1017D0006F927F928F929F92AF92BF92CF92DF9241
:1017E000EF92FF920F931F93CF93DF93CDB7DEB7A6
:1017F000CA1BDB0B0FB6F894DEBF0FBECDBF09943A
:101800002A88398848885F846E847D848C849B8490
:10181000AA84B984C884DF80EE80FD800C811B819E
:10182000AA81B981CE0FD11D0FB6F894DEBF0FBECD
:0A183000CDBFED010895F894FFCF3D
:10183A001027E80364000A00010054656D703A201D
:10184A002020202020202043005643433A202020F5
:06185A0020206D56000085
:00000001FF
