:10000000A7C4C1C4C0C4BFC4BEC4BDC4BCC4BBC4F7
:10001000BAC4B9C4EBC4B7C4B6C4B5C4B4C4004010
:100020007A10F35A00A0724E18090010A5D4E80007
:1000300000E87648170000E40B54020000CA9A3B1F
:10004000000000E1F50500008096980000004042A5
:100050000F000000A0860100000010270000000033
:10006000E803000000006400000000000A00000037
:1000700000000100000000002C76D888DC674F08E3
:1000800023DFC1DFAE59E1B1B796E5E3E453C63AE9
:10009000E651997696E8E6C28426EB898C9B62ED60
:1000A000407C6FFCEFBC9C9F40F2BAA56FA5F4901A
:1000B000055A2AF75C936B6CF9676DC11BFCE0E491
:1000C0000D47FEF520E6B500D0ED902E03009435E7
:1000D00077050080841E080000204E0A000000C83A
:1000E0000C333333330F986E12831141EF8D21148B
:1000F000893BE65516CFFEE6DB18D1844B381BF75B
:100100007C1D901DA4BBE424203284725E228100F9
:10011000C9F124ECA1E53D2700000000000000002B
:100120000000000000000000000000F800000000D7
:10013000000000333000000000100C06100C060018
:10014000000000000000000040C07840C07840007F
:10015000043F04043F040400007088FC08300000E1
:10016000001820FF211E0000F008F000E018000039
:1001700000211C031E211E0000F0088870000000F2
:100180001E2123241927211010160E000000000044
:100190000000000000000000000000E01804020061
:1001A000000000071820400000020418E0000000D2
:1001B0000040201807000000404080F080404000D0
:1001C0000202010F01020200000000F00000000026
:1001D0000101011F010101000000000000000000FA
:1001E00080B070000000000000000000000000006F
:1001F00000010101010101010000000000000000F8
:100200000030300000000000000000008060180492
:10021000006018060100000000E010080810E0006F
:10022000000F102020100F00001010F80000000038
:100230000020203F2020000000700808088870007F
:1002400000302824222130000030088888483000FF
:100250000018202020110E000000C02010F800001F
:1002600000070424243F240000F8088888080800B8
:100270000019212020110E0000E0108888180000CD
:10028000000F112020110E0000380808C83808009F
:100290000000003F0000000000708808088870001F
:1002A000001C222121221C0000E010080810E000A0
:1002B0000000312222110F00000000C0C000000029
:1002C000000000303000000000000080000000004E
:1002D0000000806000000000000080402010080046
:1002E000000102040810200040404040404040000F
:1002F00004040404040404000008102040800000EA
:100300000020100804020100007048080808F000EE
:100310000000003036010000C030C828E810E000BE
:100320000718272423140B000000C038E000000049
:10033000203C23020227382008F8888888700000B3
:10034000203F202020110E00C03008080808380087
:10035000071820202010080008F808080810E000FE
:10036000203F202020100F0008F88888E80810009F
:10037000203F20202320180008F88888E808100073
:10038000203F200003000000C030080808380000AB
:1003900007182020221E020008F808000008F808AC
:1003A000203F210101213F20000808F80808000033
:1003B0000020203F2020000000000808F808080066
:1003C000C08080807F00000008F888C028180800DE
:1003D000203F20012638200008F808000000000017
:1003E000203F20202020300008F8F800F8F808000E
:1003F000203F003F003F200008F830C00008F80808
:10040000203F200007183F00E01008080810E00017
:100410000F10202020100F0008F808080808F0002E
:10042000203F210101010000E01008080810E00051
:100430000F18242438504F0008F8888888887000E6
:10044000203F2000030C3020007088080808380086
:100450000038202121221C00180808F8080818007C
:100460000000203F2000000008F808000008F808FD
:10047000001F202020201F000878880000C83808AE
:10048000000007380E010000F80800F80008F80026
:10049000033C0700073C03000818688080681808C0
:1004A00020302C03032C30200838C800C83808003E
:1004B0000000203F2000000010080808C83808008D
:1004C0002038262120201800000000FE0202020031
:1004D0000000007F40404000000C30C000000000E1
:1004E000000000010638C00000020202FE00000009
:1004F000004040407F0000000000040202020400AF
:1005000000000000000000000000000000000000EB
:1005100080808080808080800002020400000000D3
:1005200000000000000000000000808080800000CB
:100530000019242222223F2008F8008080000000B9
:10054000003F112020110E0000000080808000007C
:10055000000E112020201100000000808088F8008B
:10056000000E112020103F200000808080800000BD
:10057000001F222222221300008080F08888881821
:100580000020203F2020000000008080808080002C
:10059000006B94949493600008F8008080800000C1
:1005A000203F210000203F2000809898000000009C
:1005B0000020203F202000000000008098980000CC
:1005C00000C08080807F000008F8000080808000EC
:1005D000203F24022D302000000808F80000000011
:1005E0000020203F202000008080808080808000CC
:1005F000203F20003F20003F80800080808000005E
:10060000203F210000203F200000808080800000EB
:10061000001F202020201F0080800080800000001C
:1006200080FFA12020110E0000000080808080004B
:10063000000E112020A0FF8080808000808080003C
:1006400020203F2120000100000080808080800069
:100650000033242424241900008080E080800000DE
:100660000000001F2020000080800000008080002B
:10067000001F202020103F2080808000008080808C
:1006800000010E300806010080800080008080801C
:100690000F300C030C300F00008080008080800041
:1006A0000020312E0E31200080808000008080806C
:1006B00080818E701806010000808080808080001C
:1006C0000021302C2221300000000000807C02023A
:1006D00000000000003F404000000000FF0000005C
:1006E00000000000FF0000000002027C800000000B
:1006F0000040403F00000000000601010202040427
:1007000000000000000000000000000000000000E9
:10071000002F000000000700070000147F147F1462
:1007200000242A7F2A1200626408132300364955E8
:10073000225000000503000000001C2241000000C0
:1007400041221C000014083E08140008083E080856
:10075000000000A0600000080808080800006060B1
:100760000000002010080402003E5149453E0000F0
:10077000427F4000004261514946002141454B31D2
:10078000001814127F10002745454539003C4A499E
:100790004930000171090503003649494936000610
:1007A0004949291E00003636000000005636000078
:1007B00000081422410000141414141400004122F3
:1007C000140800020151090600324959513E007CCB
:1007D0001211127C007F49494936003E41414122B5
:1007E000007F4141221C007F49494941007F09099E
:1007F0000901003E4149497A007F0808087F00004E
:10080000417F4100002040413F01007F0814224108
:10081000007F40404040007F020C027F007F0408C0
:10082000107F003E4141413E007F09090906003E1C
:100830004151215E007F0919294600464949493145
:100840000001017F0101003F4040403F001F204068
:10085000201F003F4038403F006314081463000726
:100860000870080700615149454300007F4141007D
:1008700000552A552A55000041417F00000402011D
:1008800002040040404040400000010204000020FB
:1008900054545478007F4844443800384444442039
:1008A00000384444487F00385454541800087E09E6
:1008B00001020018A4A4A47C007F080404780000AE
:1008C000447D4000004080847D00007F102844006B
:1008D0000000417F4000007C04180478007C08047C
:1008E000047800384444443800FC242424180018B8
:1008F000242418FC007C08040408004854545420A4
:1009000000043F444020003C4040207C001C20402C
:10091000201C003C4030403C004428102844001C6F
:10092000A0A0A07C004464544C4414141414141467
:10093000AED5F0A81FD300408D142000A1C8DA0264
:10094000813FD922DB20A4A62EAF22003F21007FC9
:1009500011241FBECFE5D2E0DEBFCDBF10E0A0E680
:10096000B0E0EAE6F7E102C005900D92AC37B107BE
:10097000D9F720E0ACE7B0E001C01D92A938B2077A
:10098000E1F7FBD2F0C63CCB17BAA5D060E288E015
:1009900097E0E6D020E040E060E080E0C0D02CE6C8
:1009A00030E040E060E088E191E023D12FE630E0E4
:1009B00042E060E088E191E01CD122E730E040E0D5
:1009C00060E688E191E015C182E08ABD83B7856069
:1009D00083BF8AE789BD89B7806189BF08958BB7D6
:1009E00080628BBF85B3886185BB08951F921FB657
:1009F0001F9211248F939F9380917E0090917F008E
:100A0000019690937F0080937E0080917E0090916C
:100A10007F008432910554F081E090E090937D0056
:100A200080937C0010927F0010927E009F918F91A6
:100A30001F901FBE1F9018958F939F938CE090E09E
:100A400090936100809360009F918F9118958F9390
:100A50008FB78F939F938091600090916100019771
:100A600090936100809360009F918F918FBF8F91D1
:100A70001895B89ABA9AC29AC09AC098C29808951E
:100A8000C298C098C29AC09AB898089530E020E001
:100A900090E0AC01022E01C0440F0A94EAF747FF30
:100AA0000CC0C09AC29AC2982F5F3F4F28303105C0
:100AB00081F7C09AC29AC2980895C098F3CFD9DF3F
:100AC00088E7E4DF80E0E2CFD4DF88E7DFDF80E49F
:100AD000DDCFDCCFD5CFCF93DF93F1DFC0E3D9E01B
:100AE000FE018491D3DF2196F9E0C035DF07C1F71D
:100AF000DF91CF91C5CFCF93DF93C82FD62FDFDF04
:100B00008D2F8770806BC2DF8C2F8F70BFDF8C2F93
:100B100082958F708061BADFDF91CF91B1CFEF9274
:100B2000FF920F931F93CF93DF93E82EF62E042F9F
:100B3000122F60E080E0DFDFC7DFC0E0D1E08E2D64
:100B4000A5DF8F2DA3DF802FA1DF812F9FDF2197CE
:100B5000B1F7DF91CF911F910F91FF90EF9090CF60
:100B600090938800809387006093860008950F9388
:100B70001F93CF93DF9390E0EC01CC0FDD1FCC0FE0
:100B8000DD1F880F991FC80FD91F8E01005C110946
:100B90009BDFCA5BD109E0918700F0918800E00FEC
:100BA000F11F849196DF0F5F1F4F0C171D0799F7F8
:100BB000DF91CF911F910F918DCFCF93DF93EC01F8
:100BC0008991811103C0DF91CF910895D0DFF8CFD3
:100BD0001092850060E870E05CD090E080589F4FF4
:100BE000ECCF1092850060E870E053D080E890E090
:100BF000E4CF8F929F92AF92BF92CF92EF92FF92EB
:100C00000F931F93CF93DF937C01162FC42E5901AE
:100C1000F501C1915F01C1110CC0DF91CF911F910E
:100C20000F91FF90EF90CF90BF90AF909F908F90DB
:100C30000895C052DD0B84E0CC0FDD1F8A95E1F7EB
:100C4000193710F0C39410E06C2D812F54DF3CDF76
:100C500047018C0E9D1E08E0F40184913ADF01509B
:100C6000FFEF8F1A9F0A0111F7CF34DF61E06C0D9F
:100C7000812F41DF29DF2896CE0DDF1D08E0FE0120
:100C8000849127DF015021960111F9CF23DF185FEE
:100C9000BFCFCF93DF93CDB7DEB72A970FB6F894C7
:100CA000DEBF0FBECDBFAC018AE0E2E6F0E0DE01C0
:100CB000119601900D928A95E1F7FE013196DB01C4
:100CC00020E084E06191719190E003C09F5F461B3A
:100CD000570B46175707D0F7843029F4911111C0EC
:100CE000243079F090EF905D9D932F5F253051F780
:100CF0002A960FB6F894DEBF0FBECDBFDF91CF911D
:100D00000895822FF0CF9C01FB0143E050E0822F39
:100D10008F70DF01A40FB51F8A3060F4805D8C9363
:100D200084E0369527958A95E1F74150510978F787
:100D300084E00895895CF3CF9C01FB0140E08FE0E3
:100D400060E070E890E02617370730F0261B370B7D
:100D50008F3009F4842F91E0905D9193769567959B
:100D60004F5F403179F708954F925F927F928F9253
:100D70009F92AF92BF92CF92DF92EF92FF920F932A
:100D80001F93CF93DF9300D000D00F92CDB7DEB783
:100D9000182F4B01FA012901570176019FB723E073
:100DA000823090F52081802F809528232083DB01DD
:100DB0002C9128232C932081202B2083113091F417
:100DC000B6EABA95F1F700C0F89420812823208371
:100DD000B7E1BA95F1F70000D2012C91202349F038
:100DE0009FBF11C0A3E9B1E11197F1F700C0000066
:100DF000EBCFBAE1BA95F1F700C0D2012C912023D4
:100E00009FBF211117C021E0822F0F900F900F90EC
:100E10000F900F90DF91CF911F910F91FF90EF9066
:100E2000DF90CF90BF90AF909F908F907F905F901A
:100E30004F900895BDE0BA95F1F70000AE014F5F05
:100E40005F4F7C2E26E0720E9FB7F89420812823F6
:100E50002083D4012C9128232C9330E068E070E0AB
:100E6000A0E8DA2E2EE304C0215009F4B9CF000027
:100E7000D201CC90C022C1F3BAE0BA95F1F7D20109
:100E80002C91202309F03D292EE3C22ED2012C9172
:100E9000202349F5D6946150710921F7DA013D9379
:100EA000AD019FBF7A12D0CF89819A81980FEB81D3
:100EB0009E0F3C81930F3D81391329C090E0F0E0F3
:100EC0001130B9F48B819C8149815A81542745277F
:100ED0005427F70151834083982789279827D50104
:100EE0008D939C9391CFCA94CC2009F479CF0000C4
:100EF000CDCF6AE070E0E3D0D7018D939C93CF0112
:100F00006AE070E0DCD0F501918380837DCF22E040
:100F10007BCF0F93CF93DF93DB01FA01E9013FB75A
:100F2000823048F52081902F9095292320832C91A1
:100F300029232C932081202B20838130A9F486EA59
:100F40008A95F1F700C0F894808189238083B7E106
:100F5000BA95F1F70000888180233FBF811181E0BD
:100F6000DF91CF910F910895A3E9B1E11197F1F7C6
:100F700000C00000E8CF83E0F3CFCDB7DEB76297C3
:100F80000FB6F894DEBF0FBECDBFFEDC1DDD27DD42
:100F900078948AE0A82EB12C80917C0090917D00FD
:100FA0000197D1F702E026E330E047E350E068E341
:100FB00070E081E0AEDF2FE38DE093E021508040D0
:100FC0009040E1F700C00000DE011B966D01CE01EC
:100FD0000D967C0126E330E047E350E068E370E0E3
:100FE00081E0C2DE8B859C85B5017AD0CB01770F7D
:100FF000AA0BBB0B8F87988BA98BBA8BBC01CD0139
:1010000098D06B017C018D859E85B50169D0CB019F
:10101000770FAA0BBB0B8F87988BA98BBA8BBC0160
:10102000CD0187D08E010F5F1F4F21E030E044E0FB
:1010300050E06F87788B898B9A8B6F857889898947
:101040009A89B2D09C0140E060E188E191E0D1DD75
:1010500027E730E040E060E388E191E0CADD21E08D
:1010600030E044E050E0CF86D88AE98AFA8A6F857A
:10107000788989899A8998D09C0142E060E188E169
:1010800091E0B7DD29E730E042E060E388E191E0FC
:10109000B0DD80916000909161004AE050E0B801BD
:1010A000AFD09C0142E060E688E191E0A2DD27E755
:1010B00030E042E060E788E191E09BDD6DCF002405
:1010C000552704C0080E591F880F991F009729F053
:1010D00076956795B8F37105B9F7802D952F08952A
:1010E00097FB072E16F4009406D077FD08D00BD09E
:1010F00007FC05D03EF4909581959F4F089570951B
:1011000061957F4F0895AA1BBB1B51E107C0AA1F21
:10111000BB1FA617B70710F0A61BB70B881F991F98
:101120005A95A9F780959095BC01CD010895E89452
:1011300009C097FB3EF490958095709561957F4F1F
:101140008F4F9F4F9923A9F0F92F96E9BB279395CD
:10115000F695879577956795B795F111F8CFFAF4DD
:10116000BB0F11F460FF1BC06F5F7F4F8F4F9F4F0E
:1011700016C0882311F096E911C0772321F09EE86C
:10118000872F762F05C0662371F096E8862F70E0D2
:1011900060E02AF09A95660F771F881FDAF7880FAC
:1011A0009695879597F90895EF920F931F93CF9394
:1011B000DF9300D000D00F92CDB7DEB7322F0D8372
:1011C00054E047FD54E1242F27FD2195E52E032F00
:1011D0004D81512F69837A838B839C8369817A81C6
:1011E0008B819C813AD08D81912F0F900F900F9021
:1011F0000F900F90DF91CF911F910F91EF90089575
:101200004532510518F4423008F004C0FB01108249
:10121000CB010895BB274A3031F4992322F4BDE273
:10122000909581959F4F01C0BB27FB015527AA27A9
:10123000880F991FAA1FA41710F0A41B8395505163
:10124000B9F7A05DAA3308F0A95DA193009779F7DB
:10125000B111B1931192CB0176C26F927F929F929E
:10126000AF92BF92CF92DF92EF92FF920F931F93B4
:10127000CF93DF93CDB7DEB72D970FB6F894DEBFCF
:101280000FBECDBF6A01122FB02EFBE36F2E60168A
:1012900008F40BE3FF24F394F00E0F2D27E0AE01CA
:1012A0004F5F5F4F6A877B878C879D876A857B85C9
:1012B0008C859D8570D1AC01A9808A2D89703DE215
:1012C000813039F03BE2E1FC04C03E2D3170E0FC9E
:1012D00030E20E2D0071EA2DE870A3FE59C083E0C4
:1012E000311184E08117A8F5181B002309F43FC0D1
:1012F000332319F0F60131936F01F6013396E2FEC4
:101300003BC08EE4D6018C9391E411969C93119787
:1013100012968C93812F9E2F2F2F30E2811131C096
:10132000E10FF11D10828EEF9FEF2D960FB6F8940E
:10133000DEBF0FBECDBFDF91CF911F910F91FF9008
:10134000EF90DF90CF90BF90AF909F907F906F9085
:10135000089510E0CACFE92FF22F419381509E2FBC
:101360002F2F8111F8CFC10ED11C10E0C1CF812FDA
:101370009C2D2D2D40E2F5CF8EE6D6018C9391E683
:10138000C4CFA92FB22F3D9381509A2F2B2FC6CFB8
:101390002A2D2470A2FE47C083E0311184E081171A
:1013A00010F4E12FE81B002349F1332319F0D60193
:1013B0003D936D01C6010396E2FE25C029E4D601E6
:1013C0002C932EE411962C93119726E412962C93CD
:1013D0002E2F382F492F50E221111EC0E80FF92F70
:1013E000F11DA0CFA92FB22F4D9381509A2F2B2FF3
:1013F0008111F8CFCE0ED11CE0E0D7CF8E2F9C2DDF
:101400002D2D40E2F5CF29E6D6012C932EE611963C
:101410002C93119726E6DACFA32FB42F5D9321509A
:101420003A2F4B2FD9CFBA0157FF02C070E060E0CE
:10143000E1E0F0E0311102C0F0E0E0E0CB01019624
:10144000E80FF91F8B2D90E0DC011196B11002C05E
:10145000B0E0A0E0EA0FFB1F1E171F0619F014F002
:10146000212F2E1B011194C0D601E22FF0E2E3FEE2
:1014700051C0332329F0F60131936F01011108C0E7
:10148000F601322FA0E331114BC0C20ED11C20E077
:101490000F2D040F3A81FA2DF071BF2EA4FE03C068
:1014A000313309F401501016F4F5093008F008E062
:1014B000DB017A01E01AF10800271127081B190B3C
:1014C000EEE29E2E4A175B0784F1EA16FB066CF5E6
:1014D000FA01EA1BFB0B66246394712C6C0E7D1ED3
:1014E000E60DF71DA18011973601EFEF6E1A7E0A07
:1014F000A017B107ECF0F601A082AF3FBA0731F4B4
:101500003601E2E06E0E711CF60191826301DACFC2
:10151000FD93E150E111FCCFC20ED11C20E0A9CF18
:10152000A1933150B0CF01E0C3CFE0E3AE2EDBCFCB
:1015300080959095861797070CF5861B970B01965B
:1015400061507109860F971F4817590741F43633C8
:1015500020F4353321F4B11002C081E3A82ED60166
:10156000AC92822F962D372D40E281110AC0F301F3
:10157000E20FF11D108290E080E0D7CE90E080E095
:10158000DFCFA92FB32F4D9381509A2F3B2FEDCF53
:10159000311171CF7DCF283008F027E03327DA01F1
:1015A000990F311D87FD916000966105710539F431
:1015B00032602E5F3D9330E32A95E1F708959F3F17
:1015C00030F080387105610509F03C5F3C5F3D9368
:1015D000913008F08068911DDF93CF931F930F9394
:1015E000FF92EF92192F987F9695E92F96959695F1
:1015F000E90FFF27E858FF4F99273327EE24FF24F0
:10160000A701E70105900894079428F4360FE71E18
:10161000F81E491F511D660F771F881F991F0694DA
:10162000A1F70590079428F4E70EF81E491F561FEE
:10163000C11D770F881F991F661F0694A1F705909B
:10164000079428F4F80E491F561FC71FD11D880F95
:10165000991F661F771F0694A1F70590079420F441
:10166000490F561FC71FD81F990F661F771F881F66
:101670000694A9F784911095177041F0D695C795F7
:1016800057954795F794E7941A95C1F7EEE1F0E086
:1016900068941590159135916591959105907FE22B
:1016A0007395E118F10A430B560BC90BD009C0F72B
:1016B000E10CF11E431F561FC91FD01D7EF470336D
:1016C00011F48A95E6CFE894015030F0080F0AF43F
:1016D0000027021708F4202F2395022F7A3328F0D1
:1016E00079E37D932A95E9F710C07D932A9589F6D1
:1016F000069497956795379517951794E118F10A11
:10170000430B560BC90BD00998F023957E91739526
:101710007A3308F070E37C932013B8F77E91706100
:101720007D9330F0839571E37D9370E32A95E1F723
:101730001124EF90FF900F911F91CF91DF91992786
:1017400087FD90950895DC01FC01672F7191772347
:10175000E1F7329704C07C916D9370836291AE176C
:0A176000BF07C8F30895F894FFCF07
:10176A000A001027E80364000A000100543A004600
:0C177A003A005365743A0043002500005B
:00000001FF
